{
  "_format": "hh-sol-artifact-1",
  "contractName": "ProofNest",
  "sourceName": "contracts/proofNest.sol",
  "abi": [
    {
      "inputs": [],
      "stateMutability": "nonpayable",
      "type": "constructor"
    },
    {
      "inputs": [],
      "name": "EnforcedPause",
      "type": "error"
    },
    {
      "inputs": [],
      "name": "ExpectedPause",
      "type": "error"
    },
    {
      "inputs": [
        {
          "internalType": "address",
          "name": "owner",
          "type": "address"
        }
      ],
      "name": "OwnableInvalidOwner",
      "type": "error"
    },
    {
      "inputs": [
        {
          "internalType": "address",
          "name": "account",
          "type": "address"
        }
      ],
      "name": "OwnableUnauthorizedAccount",
      "type": "error"
    },
    {
      "anonymous": false,
      "inputs": [
        {
          "indexed": true,
          "internalType": "address",
          "name": "previousOwner",
          "type": "address"
        },
        {
          "indexed": true,
          "internalType": "address",
          "name": "newOwner",
          "type": "address"
        }
      ],
      "name": "OwnershipTransferred",
      "type": "event"
    },
    {
      "anonymous": false,
      "inputs": [
        {
          "indexed": false,
          "internalType": "address",
          "name": "account",
          "type": "address"
        }
      ],
      "name": "Paused",
      "type": "event"
    },
    {
      "anonymous": false,
      "inputs": [
        {
          "indexed": true,
          "internalType": "address",
          "name": "user",
          "type": "address"
        },
        {
          "indexed": false,
          "internalType": "uint256",
          "name": "planId",
          "type": "uint256"
        },
        {
          "indexed": false,
          "internalType": "string",
          "name": "planName",
          "type": "string"
        },
        {
          "indexed": false,
          "internalType": "bool",
          "name": "isAnnual",
          "type": "bool"
        },
        {
          "indexed": false,
          "internalType": "uint256",
          "name": "amount",
          "type": "uint256"
        },
        {
          "indexed": false,
          "internalType": "uint256",
          "name": "expiresAt",
          "type": "uint256"
        }
      ],
      "name": "PlanPurchased",
      "type": "event"
    },
    {
      "anonymous": false,
      "inputs": [
        {
          "indexed": false,
          "internalType": "uint256",
          "name": "planId",
          "type": "uint256"
        },
        {
          "indexed": false,
          "internalType": "string",
          "name": "name",
          "type": "string"
        },
        {
          "indexed": false,
          "internalType": "uint256",
          "name": "monthlyPrice",
          "type": "uint256"
        },
        {
          "indexed": false,
          "internalType": "uint256",
          "name": "annualDiscount",
          "type": "uint256"
        },
        {
          "indexed": false,
          "internalType": "bool",
          "name": "isActive",
          "type": "bool"
        }
      ],
      "name": "PlanUpdated",
      "type": "event"
    },
    {
      "anonymous": false,
      "inputs": [
        {
          "indexed": true,
          "internalType": "address",
          "name": "user",
          "type": "address"
        },
        {
          "indexed": true,
          "internalType": "bytes32",
          "name": "contentHash",
          "type": "bytes32"
        },
        {
          "indexed": false,
          "internalType": "uint256",
          "name": "timestamp",
          "type": "uint256"
        }
      ],
      "name": "ProofCreated",
      "type": "event"
    },
    {
      "anonymous": false,
      "inputs": [
        {
          "indexed": false,
          "internalType": "address",
          "name": "account",
          "type": "address"
        }
      ],
      "name": "Unpaused",
      "type": "event"
    },
    {
      "anonymous": false,
      "inputs": [
        {
          "indexed": false,
          "internalType": "uint256",
          "name": "amount",
          "type": "uint256"
        },
        {
          "indexed": false,
          "internalType": "uint256",
          "name": "timestamp",
          "type": "uint256"
        }
      ],
      "name": "Withdrawal",
      "type": "event"
    },
    {
      "inputs": [
        {
          "internalType": "bytes32",
          "name": "contentHash",
          "type": "bytes32"
        }
      ],
      "name": "addProof",
      "outputs": [],
      "stateMutability": "nonpayable",
      "type": "function"
    },
    {
      "inputs": [
        {
          "internalType": "uint256",
          "name": "planId",
          "type": "uint256"
        },
        {
          "internalType": "bool",
          "name": "isAnnual",
          "type": "bool"
        }
      ],
      "name": "getPrice",
      "outputs": [
        {
          "internalType": "uint256",
          "name": "",
          "type": "uint256"
        }
      ],
      "stateMutability": "view",
      "type": "function"
    },
    {
      "inputs": [
        {
          "internalType": "address",
          "name": "user",
          "type": "address"
        }
      ],
      "name": "hasActiveSubscription",
      "outputs": [
        {
          "internalType": "bool",
          "name": "",
          "type": "bool"
        }
      ],
      "stateMutability": "view",
      "type": "function"
    },
    {
      "inputs": [],
      "name": "owner",
      "outputs": [
        {
          "internalType": "address",
          "name": "",
          "type": "address"
        }
      ],
      "stateMutability": "view",
      "type": "function"
    },
    {
      "inputs": [],
      "name": "pause",
      "outputs": [],
      "stateMutability": "nonpayable",
      "type": "function"
    },
    {
      "inputs": [],
      "name": "paused",
      "outputs": [
        {
          "internalType": "bool",
          "name": "",
          "type": "bool"
        }
      ],
      "stateMutability": "view",
      "type": "function"
    },
    {
      "inputs": [
        {
          "internalType": "uint256",
          "name": "",
          "type": "uint256"
        }
      ],
      "name": "plans",
      "outputs": [
        {
          "internalType": "string",
          "name": "name",
          "type": "string"
        },
        {
          "internalType": "uint256",
          "name": "monthlyPrice",
          "type": "uint256"
        },
        {
          "internalType": "uint256",
          "name": "annualDiscount",
          "type": "uint256"
        },
        {
          "internalType": "bool",
          "name": "isActive",
          "type": "bool"
        }
      ],
      "stateMutability": "view",
      "type": "function"
    },
    {
      "inputs": [
        {
          "internalType": "bytes32",
          "name": "",
          "type": "bytes32"
        }
      ],
      "name": "proofs",
      "outputs": [
        {
          "internalType": "address",
          "name": "owner",
          "type": "address"
        },
        {
          "internalType": "uint256",
          "name": "timestamp",
          "type": "uint256"
        }
      ],
      "stateMutability": "view",
      "type": "function"
    },
    {
      "inputs": [],
      "name": "renounceOwnership",
      "outputs": [],
      "stateMutability": "nonpayable",
      "type": "function"
    },
    {
      "inputs": [
        {
          "internalType": "uint256",
          "name": "_planId",
          "type": "uint256"
        },
        {
          "internalType": "string",
          "name": "_name",
          "type": "string"
        },
        {
          "internalType": "uint256",
          "name": "_monthlyPrice",
          "type": "uint256"
        },
        {
          "internalType": "uint256",
          "name": "_discount",
          "type": "uint256"
        },
        {
          "internalType": "bool",
          "name": "_isActive",
          "type": "bool"
        }
      ],
      "name": "setPlan",
      "outputs": [],
      "stateMutability": "nonpayable",
      "type": "function"
    },
    {
      "inputs": [
        {
          "internalType": "uint256",
          "name": "planId",
          "type": "uint256"
        },
        {
          "internalType": "bool",
          "name": "isAnnual",
          "type": "bool"
        }
      ],
      "name": "subscribe",
      "outputs": [],
      "stateMutability": "payable",
      "type": "function"
    },
    {
      "inputs": [
        {
          "internalType": "address",
          "name": "",
          "type": "address"
        }
      ],
      "name": "subscriptions",
      "outputs": [
        {
          "internalType": "uint256",
          "name": "planId",
          "type": "uint256"
        },
        {
          "internalType": "uint256",
          "name": "expiresAt",
          "type": "uint256"
        }
      ],
      "stateMutability": "view",
      "type": "function"
    },
    {
      "inputs": [
        {
          "internalType": "address",
          "name": "newOwner",
          "type": "address"
        }
      ],
      "name": "transferOwnership",
      "outputs": [],
      "stateMutability": "nonpayable",
      "type": "function"
    },
    {
      "inputs": [],
      "name": "unpause",
      "outputs": [],
      "stateMutability": "nonpayable",
      "type": "function"
    },
    {
      "inputs": [],
      "name": "withdraw",
      "outputs": [],
      "stateMutability": "nonpayable",
      "type": "function"
    }
  ],
  "bytecode": "0x608060405234801561001057600080fd5b5033600073ffffffffffffffffffffffffffffffffffffffff168173ffffffffffffffffffffffffffffffffffffffff16036100845760006040517f1e4fbdf700000000000000000000000000000000000000000000000000000000815260040161007b9190610322565b60405180910390fd5b6100938161021d60201b60201c565b5060405180608001604052806040518060400160405280600381526020017f50726f00000000000000000000000000000000000000000000000000000000008152508152602001662386f26fc10000815260200160148152602001600115158152506001600060018152602001908152602001600020600082015181600001908161011e919061058d565b50602082015181600101556040820151816002015560608201518160030160006101000a81548160ff02191690831515021790555090505060405180608001604052806040518060400160405280600481526020017f5465616d00000000000000000000000000000000000000000000000000000000815250815260200166b1a2bc2ec500008152602001601e815260200160011515815250600160006002815260200190815260200160002060008201518160000190816101e0919061058d565b50602082015181600101556040820151816002015560608201518160030160006101000a81548160ff02191690831515021790555090505061065f565b60008060009054906101000a900473ffffffffffffffffffffffffffffffffffffffff169050816000806101000a81548173ffffffffffffffffffffffffffffffffffffffff021916908373ffffffffffffffffffffffffffffffffffffffff1602179055508173ffffffffffffffffffffffffffffffffffffffff168173ffffffffffffffffffffffffffffffffffffffff167f8be0079c531659141344cd1fd0a4f28419497f9722a3daafe3b4186f6b6457e060405160405180910390a35050565b600073ffffffffffffffffffffffffffffffffffffffff82169050919050565b600061030c826102e1565b9050919050565b61031c81610301565b82525050565b60006020820190506103376000830184610313565b92915050565b600081519050919050565b7f4e487b7100000000000000000000000000000000000000000000000000000000600052604160045260246000fd5b7f4e487b7100000000000000000000000000000000000000000000000000000000600052602260045260246000fd5b600060028204905060018216806103be57607f821691505b6020821081036103d1576103d0610377565b5b50919050565b60008190508160005260206000209050919050565b60006020601f8301049050919050565b600082821b905092915050565b6000600883026104397fffffffffffffffffffffffffffffffffffffffffffffffffffffffffffffffff826103fc565b61044386836103fc565b95508019841693508086168417925050509392505050565b6000819050919050565b6000819050919050565b600061048a6104856104808461045b565b610465565b61045b565b9050919050565b6000819050919050565b6104a48361046f565b6104b86104b082610491565b848454610409565b825550505050565b600090565b6104cd6104c0565b6104d881848461049b565b505050565b5b818110156104fc576104f16000826104c5565b6001810190506104de565b5050565b601f82111561054157610512816103d7565b61051b846103ec565b8101602085101561052a578190505b61053e610536856103ec565b8301826104dd565b50505b505050565b600082821c905092915050565b600061056460001984600802610546565b1980831691505092915050565b600061057d8383610553565b9150826002028217905092915050565b6105968261033d565b67ffffffffffffffff8111156105af576105ae610348565b5b6105b982546103a6565b6105c4828285610500565b600060209050601f8311600181146105f757600084156105e5578287015190505b6105ef8582610571565b865550610657565b601f198416610605866103d7565b60005b8281101561062d57848901518255600182019150602085019450602081019050610608565b8683101561064a5784890151610646601f891682610553565b8355505b6001600288020188555050505b505050505050565b611d928061066e6000396000f3fe6080604052600436106100e85760003560e01c80638456cb591161008a578063bebe4a5711610059578063bebe4a571461029f578063eed77320146102dc578063f046395a14610305578063f2fde38b14610343576100e8565b80638456cb59146101f4578063880d19d21461020b5780638da5cb5b14610234578063b16206161461025f576100e8565b8063444d95b0116100c6578063444d95b0146101375780635705b61a146101755780635c975abb146101b2578063715018a6146101dd576100e8565b8063382b43fb146100ed5780633ccfd60b146101095780633f4ba83a14610120575b600080fd5b61010760048036038101906101029190611060565b61036c565b005b34801561011557600080fd5b5061011e6104e4565b005b34801561012c57600080fd5b50610135610624565b005b34801561014357600080fd5b5061015e600480360381019061015991906110d6565b610636565b60405161016c929190611153565b60405180910390f35b34801561018157600080fd5b5061019c60048036038101906101979190611060565b61067a565b6040516101a9919061117c565b60405180910390f35b3480156101be57600080fd5b506101c76107f7565b6040516101d491906111a6565b60405180910390f35b3480156101e957600080fd5b506101f261080d565b005b34801561020057600080fd5b50610209610821565b005b34801561021757600080fd5b50610232600480360381019061022d91906110d6565b610833565b005b34801561024057600080fd5b50610249610a0c565b60405161025691906111c1565b60405180910390f35b34801561026b57600080fd5b50610286600480360381019061028191906111dc565b610a35565b6040516102969493929190611299565b60405180910390f35b3480156102ab57600080fd5b506102c660048036038101906102c19190611311565b610afa565b6040516102d391906111a6565b60405180910390f35b3480156102e857600080fd5b5061030360048036038101906102fe91906113a3565b610b49565b005b34801561031157600080fd5b5061032c60048036038101906103279190611311565b610ca5565b60405161033a92919061143d565b60405180910390f35b34801561034f57600080fd5b5061036a60048036038101906103659190611311565b610cc9565b005b610374610d4f565b6000610380838361067a565b90508034146103c4576040517f08c379a00000000000000000000000000000000000000000000000000000000081526004016103bb906114b2565b60405180910390fd5b6000826103d45762278d006103da565b6301e133805b63ffffffff1690506000600260003373ffffffffffffffffffffffffffffffffffffffff1673ffffffffffffffffffffffffffffffffffffffff16815260200190815260200160002090504281600101541061045057818160010160008282546104449190611501565b92505081905550610465565b814261045c9190611501565b81600101819055505b8481600001819055503373ffffffffffffffffffffffffffffffffffffffff167f814fe3f9d0133d75c22bd7b1c028677d454f72b5337746f4fbeb394469c8412f8660016000898152602001908152602001600020600001873486600101546040516104d595949392919061162e565b60405180910390a25050505050565b6104ec610d90565b600047905060008111610534576040517f08c379a000000000000000000000000000000000000000000000000000000000815260040161052b906116d4565b60405180910390fd5b600061053e610a0c565b73ffffffffffffffffffffffffffffffffffffffff168260405161056190611725565b60006040518083038185875af1925050503d806000811461059e576040519150601f19603f3d011682016040523d82523d6000602084013e6105a3565b606091505b50509050806105e7576040517f08c379a00000000000000000000000000000000000000000000000000000000081526004016105de90611786565b60405180910390fd5b7fbf2ed60bd5b5965d685680c01195c9514e4382e28e3a5a2d2d5244bf59411b93824260405161061892919061143d565b60405180910390a15050565b61062c610d90565b610634610e17565b565b60036020528060005260406000206000915090508060000160009054906101000a900473ffffffffffffffffffffffffffffffffffffffff16908060010154905082565b600080600160008581526020019081526020016000206040518060800160405290816000820180546106ab90611564565b80601f01602080910402602001604051908101604052809291908181526020018280546106d790611564565b80156107245780601f106106f957610100808354040283529160200191610724565b820191906000526020600020905b81548152906001019060200180831161070757829003601f168201915b5050505050815260200160018201548152602001600282015481526020016003820160009054906101000a900460ff161515151581525050905080606001516107a2576040517f08c379a0000000000000000000000000000000000000000000000000000000008152600401610799906117f2565b60405180910390fd5b82156107e8576064816040015160646107bb9190611812565b600c83602001516107cc9190611846565b6107d69190611846565b6107e091906118b7565b9150506107f1565b80602001519150505b92915050565b60008060149054906101000a900460ff16905090565b610815610d90565b61081f6000610e79565b565b610829610d90565b610831610f3d565b565b61083b610d4f565b61084433610afa565b610883576040517f08c379a000000000000000000000000000000000000000000000000000000000815260040161087a90611934565b60405180910390fd5b600073ffffffffffffffffffffffffffffffffffffffff166003600083815260200190815260200160002060000160009054906101000a900473ffffffffffffffffffffffffffffffffffffffff1673ffffffffffffffffffffffffffffffffffffffff1614610928576040517f08c379a000000000000000000000000000000000000000000000000000000000815260040161091f906119a0565b60405180910390fd5b60405180604001604052803373ffffffffffffffffffffffffffffffffffffffff168152602001428152506003600083815260200190815260200160002060008201518160000160006101000a81548173ffffffffffffffffffffffffffffffffffffffff021916908373ffffffffffffffffffffffffffffffffffffffff16021790555060208201518160010155905050803373ffffffffffffffffffffffffffffffffffffffff167f7309b4e3e879a31b8f32e877ab8fbf91aa4baa8bde3892127172b1606038b0ac42604051610a01919061117c565b60405180910390a350565b60008060009054906101000a900473ffffffffffffffffffffffffffffffffffffffff16905090565b6001602052806000526040600020600091509050806000018054610a5890611564565b80601f0160208091040260200160405190810160405280929190818152602001828054610a8490611564565b8015610ad15780601f10610aa657610100808354040283529160200191610ad1565b820191906000526020600020905b815481529060010190602001808311610ab457829003601f168201915b5050505050908060010154908060020154908060030160009054906101000a900460ff16905084565b600042600260008473ffffffffffffffffffffffffffffffffffffffff1673ffffffffffffffffffffffffffffffffffffffff1681526020019081526020016000206001015410159050919050565b610b51610d90565b6064821115610b95576040517f08c379a0000000000000000000000000000000000000000000000000000000008152600401610b8c90611a0c565b60405180910390fd5b604051806080016040528086868080601f016020809104026020016040519081016040528093929190818152602001838380828437600081840152601f19601f820116905080830192505050505050508152602001848152602001838152602001821515815250600160008881526020019081526020016000206000820151816000019081610c249190611bf2565b50602082015181600101556040820151816002015560608201518160030160006101000a81548160ff0219169083151502179055509050507f0dc43a11dfd77be3d260c9bf777b34528caaaba3ee2300e6d44e02713e45cad2868686868686604051610c9596959493929190611d00565b60405180910390a1505050505050565b60026020528060005260406000206000915090508060000154908060010154905082565b610cd1610d90565b600073ffffffffffffffffffffffffffffffffffffffff168173ffffffffffffffffffffffffffffffffffffffff1603610d435760006040517f1e4fbdf7000000000000000000000000000000000000000000000000000000008152600401610d3a91906111c1565b60405180910390fd5b610d4c81610e79565b50565b610d576107f7565b15610d8e576040517fd93c066500000000000000000000000000000000000000000000000000000000815260040160405180910390fd5b565b610d98610fa0565b73ffffffffffffffffffffffffffffffffffffffff16610db6610a0c565b73ffffffffffffffffffffffffffffffffffffffff1614610e1557610dd9610fa0565b6040517f118cdaa7000000000000000000000000000000000000000000000000000000008152600401610e0c91906111c1565b60405180910390fd5b565b610e1f610fa8565b60008060146101000a81548160ff0219169083151502179055507f5db9ee0a495bf2e6ff9c91a7834c1ba4fdd244a5e8aa4e537bd38aeae4b073aa610e62610fa0565b604051610e6f91906111c1565b60405180910390a1565b60008060009054906101000a900473ffffffffffffffffffffffffffffffffffffffff169050816000806101000a81548173ffffffffffffffffffffffffffffffffffffffff021916908373ffffffffffffffffffffffffffffffffffffffff1602179055508173ffffffffffffffffffffffffffffffffffffffff168173ffffffffffffffffffffffffffffffffffffffff167f8be0079c531659141344cd1fd0a4f28419497f9722a3daafe3b4186f6b6457e060405160405180910390a35050565b610f45610d4f565b6001600060146101000a81548160ff0219169083151502179055507f62e78cea01bee320cd4e420270b5ea74000d11b0c9f74754ebdbfc544b05a258610f89610fa0565b604051610f9691906111c1565b60405180910390a1565b600033905090565b610fb06107f7565b610fe6576040517f8dfc202b00000000000000000000000000000000000000000000000000000000815260040160405180910390fd5b565b600080fd5b600080fd5b6000819050919050565b61100581610ff2565b811461101057600080fd5b50565b60008135905061102281610ffc565b92915050565b60008115159050919050565b61103d81611028565b811461104857600080fd5b50565b60008135905061105a81611034565b92915050565b6000806040838503121561107757611076610fe8565b5b600061108585828601611013565b92505060206110968582860161104b565b9150509250929050565b6000819050919050565b6110b3816110a0565b81146110be57600080fd5b50565b6000813590506110d0816110aa565b92915050565b6000602082840312156110ec576110eb610fe8565b5b60006110fa848285016110c1565b91505092915050565b600073ffffffffffffffffffffffffffffffffffffffff82169050919050565b600061112e82611103565b9050919050565b61113e81611123565b82525050565b61114d81610ff2565b82525050565b60006040820190506111686000830185611135565b6111756020830184611144565b9392505050565b60006020820190506111916000830184611144565b92915050565b6111a081611028565b82525050565b60006020820190506111bb6000830184611197565b92915050565b60006020820190506111d66000830184611135565b92915050565b6000602082840312156111f2576111f1610fe8565b5b600061120084828501611013565b91505092915050565b600081519050919050565b600082825260208201905092915050565b60005b83811015611243578082015181840152602081019050611228565b60008484015250505050565b6000601f19601f8301169050919050565b600061126b82611209565b6112758185611214565b9350611285818560208601611225565b61128e8161124f565b840191505092915050565b600060808201905081810360008301526112b38187611260565b90506112c26020830186611144565b6112cf6040830185611144565b6112dc6060830184611197565b95945050505050565b6112ee81611123565b81146112f957600080fd5b50565b60008135905061130b816112e5565b92915050565b60006020828403121561132757611326610fe8565b5b6000611335848285016112fc565b91505092915050565b600080fd5b600080fd5b600080fd5b60008083601f8401126113635761136261133e565b5b8235905067ffffffffffffffff8111156113805761137f611343565b5b60208301915083600182028301111561139c5761139b611348565b5b9250929050565b60008060008060008060a087890312156113c0576113bf610fe8565b5b60006113ce89828a01611013565b965050602087013567ffffffffffffffff8111156113ef576113ee610fed565b5b6113fb89828a0161134d565b9550955050604061140e89828a01611013565b935050606061141f89828a01611013565b925050608061143089828a0161104b565b9150509295509295509295565b60006040820190506114526000830185611144565b61145f6020830184611144565b9392505050565b7f496e636f72726563742045544820616d6f756e74000000000000000000000000600082015250565b600061149c601483611214565b91506114a782611466565b602082019050919050565b600060208201905081810360008301526114cb8161148f565b9050919050565b7f4e487b7100000000000000000000000000000000000000000000000000000000600052601160045260246000fd5b600061150c82610ff2565b915061151783610ff2565b925082820190508082111561152f5761152e6114d2565b5b92915050565b7f4e487b7100000000000000000000000000000000000000000000000000000000600052602260045260246000fd5b6000600282049050600182168061157c57607f821691505b60208210810361158f5761158e611535565b5b50919050565b60008190508160005260206000209050919050565b600081546115b781611564565b6115c18186611214565b945060018216600081146115dc57600181146115f257611625565b60ff198316865281151560200286019350611625565b6115fb85611595565b60005b8381101561161d578154818901526001820191506020810190506115fe565b808801955050505b50505092915050565b600060a0820190506116436000830188611144565b818103602083015261165581876115aa565b90506116646040830186611197565b6116716060830185611144565b61167e6080830184611144565b9695505050505050565b7f4e6f2062616c616e636520746f20776974686472617700000000000000000000600082015250565b60006116be601683611214565b91506116c982611688565b602082019050919050565b600060208201905081810360008301526116ed816116b1565b9050919050565b600081905092915050565b50565b600061170f6000836116f4565b915061171a826116ff565b600082019050919050565b600061173082611702565b9150819050919050565b7f5769746864726177206661696c65640000000000000000000000000000000000600082015250565b6000611770600f83611214565b915061177b8261173a565b602082019050919050565b6000602082019050818103600083015261179f81611763565b9050919050565b7f506c616e20696e61637469766500000000000000000000000000000000000000600082015250565b60006117dc600d83611214565b91506117e7826117a6565b602082019050919050565b6000602082019050818103600083015261180b816117cf565b9050919050565b600061181d82610ff2565b915061182883610ff2565b92508282039050818111156118405761183f6114d2565b5b92915050565b600061185182610ff2565b915061185c83610ff2565b925082820261186a81610ff2565b91508282048414831517611881576118806114d2565b5b5092915050565b7f4e487b7100000000000000000000000000000000000000000000000000000000600052601260045260246000fd5b60006118c282610ff2565b91506118cd83610ff2565b9250826118dd576118dc611888565b5b828204905092915050565b7f4e6f2061637469766520737562736372697074696f6e00000000000000000000600082015250565b600061191e601683611214565b9150611929826118e8565b602082019050919050565b6000602082019050818103600083015261194d81611911565b9050919050565b7f50726f6f6620616c726561647920657869737473000000000000000000000000600082015250565b600061198a601483611214565b915061199582611954565b602082019050919050565b600060208201905081810360008301526119b98161197d565b9050919050565b7f496e76616c696420646973636f756e7400000000000000000000000000000000600082015250565b60006119f6601083611214565b9150611a01826119c0565b602082019050919050565b60006020820190508181036000830152611a25816119e9565b9050919050565b7f4e487b7100000000000000000000000000000000000000000000000000000000600052604160045260246000fd5b60006020601f8301049050919050565b600082821b905092915050565b600060088302611aa87fffffffffffffffffffffffffffffffffffffffffffffffffffffffffffffffff82611a6b565b611ab28683611a6b565b95508019841693508086168417925050509392505050565b6000819050919050565b6000611aef611aea611ae584610ff2565b611aca565b610ff2565b9050919050565b6000819050919050565b611b0983611ad4565b611b1d611b1582611af6565b848454611a78565b825550505050565b600090565b611b32611b25565b611b3d818484611b00565b505050565b5b81811015611b6157611b56600082611b2a565b600181019050611b43565b5050565b601f821115611ba657611b7781611595565b611b8084611a5b565b81016020851015611b8f578190505b611ba3611b9b85611a5b565b830182611b42565b50505b505050565b600082821c905092915050565b6000611bc960001984600802611bab565b1980831691505092915050565b6000611be28383611bb8565b9150826002028217905092915050565b611bfb82611209565b67ffffffffffffffff811115611c1457611c13611a2c565b5b611c1e8254611564565b611c29828285611b65565b600060209050601f831160018114611c5c5760008415611c4a578287015190505b611c548582611bd6565b865550611cbc565b601f198416611c6a86611595565b60005b82811015611c9257848901518255600182019150602085019450602081019050611c6d565b86831015611caf5784890151611cab601f891682611bb8565b8355505b6001600288020188555050505b505050505050565b82818337600083830152505050565b6000611cdf8385611214565b9350611cec838584611cc4565b611cf58361124f565b840190509392505050565b600060a082019050611d156000830189611144565b8181036020830152611d28818789611cd3565b9050611d376040830186611144565b611d446060830185611144565b611d516080830184611197565b97965050505050505056fea2646970667358221220e2a742a75a989164e73aafc247f11361fe98510a15f58386424c8741ed20b14d64736f6c634300081c0033",
  "linkReferences": {},
  "deployedLinkReferences": {}
}